:020000040800F2
:100000009007002081020008833600080B250008B5
:100010007F360008E31F0008E142000800000000EE
:100020000000000000000000000000003D3F00084C
:10003000E71F000800000000253E000851400008AE
:100040009B0200089B0200089B0200089B0200081C
:100050009B0200089B0200089B0200089B0200080C
:100060009B0200089B0200089B0200089B020008FC
:100070009B0200089B0200089B0200089B020008EC
:100080009B0200089B0200089B0200089B020008DC
:100090009B0200089B0200089B0200089B020008CC
:1000A0009B0200089B0200089B0200089B020008BC
:1000B0009B0200089B0200089B0200089B020008AC
:1000C0009B0200089B0200089B0200089B0200089C
:1000D0009B020008B5400008D14000089B020008C0
:1000E0009B0200089B0200089B0200089B0200087C
:1000F0009B0200089B0200089B0200089B0200086C
:100100009B0200089B0200089B0200089B0200085B
:100110009B0200089B0200089B0200089B0200084B
:100120009B0200089B0200089B0200089B0200083B
:1001300000F002F800F094F80AA090E8000C824465
:100140008344AAF10107DA4501D100F089F8AFF242
:10015000090EBAE80F0013F0010F18BFFB1A43F0A5
:10016000010318477C9500009C950000103A24BFBD
:1001700078C878C1FAD8520724BF30C830C144BF0C
:1001800004680C607047000000230024002500264E
:10019000103A28BF78C1FBD8520728BF30C148BFEA
:1001A0000B6070476E2900F01A85702900F00B82F1
:1001B000662908F0E082652908F0DD82672908F0E9
:1001C000DA826129AFF3008003681B0A28BF41F07F
:1001D0008001692900F07C81642900F0798175290A
:1001E00000F076816F2900F01B86782900F0D78116
:1001F000E92900F0B585E42900F0B285F52900F081
:10020000AF85EF2900F01886F82900F0D681036841
:10021000DB0928BF41F08001632900F024857329A0
:1002200000F02985E32901F02581F32901F02A81D5
:10023000002070471FB59DE8030000F0ADFB01F002
:10024000C5F904000020002107F0B6F9401C6060E9
:100250000020002107F0C6F9E0601FBD10B510BDF9
:1002600001F08EF91146FFF7E5FF05F0EBFE01F016
:100270006DFA03B4FFF7F2FF03BC04F0A2F900002B
:100280000948804709480047FEE7FEE7FEE7FEE72A
:10029000FEE7FEE7FEE7FEE7FEE7FEE70448054966
:1002A000054A064B70470000554000083101000820
:1002B0009001002090070020900300209003002070
:1002C000704770B5064600F047FB056806F10B0065
:1002D00020F00704B4429CBF002070BD2B466A6822
:1002E000BAB11068A04210D304F1080188423CBFA3
:1002F0005068586007D35168101941601168091B94
:10030000016058601460101D70BD13465268002AC9
:10031000E7D12146284600F02BFB0028DED170BD36
:1003200070B50446051F00F017FB0068002C14BFD1
:10033000446870BD002C18BFAC423CBF20466468C6
:10034000F8D301680A18AA4218BF456003D12A6889
:1003500005461144016028684119A1421CBF6C6028
:1003600070BD6168696021680844286070BD10B57F
:100370004C1084EA530404D54042C1F1000138BF57
:10038000491E1B4204D55242C3F1000338BF5B1E15
:1003900000F038FB14F0804F04D04042C1F100015E
:1003A00038BF491E14F0004F04D05242C3F100037D
:1003B00038BF5B1E10BD00007CB51D4616460C0004
:1003C000009001D02044401E074B7B442A466946DA
:1003D0000190304600F01DFC05461CB10020694626
:1003E00000F02AFC28467CBD750800000FB40449C3
:1003F00010B503AA029800F043FC10BC5DF814FB92
:100400007C0000200FB41CB5084B06AA7B4469464B
:100410000090059800F0FDFB04460020694600F0BE
:100420000BFC20461CBC5DF814FB000029080000F2
:1004300070B5044685690068C10601D5302600E024
:100440002026C00707D070BDD4E90121304690476F
:10045000206A401C20626D1EF6D570BD70B5044642
:1004600085690078C00707D170BDD4E9012120203B
:100470009047206A401C20626D1EF6D570BD70B595
:100480000C460546012A05D02878800600D5EA6981
:10049000002302E0012305E05B1C934202D2E05CF2
:1004A0000028F9D1A869E618C01AA861286A18447A
:1004B00028622846FFF7BCFF04E0D5E9012114F8C3
:1004C000010B9047B442F8D32846FFF7C7FF70BD31
:1004D0002DE9F0410646002410687529314616A51D
:1004E00010D000F011FB002802DA404213A507E00B
:1004F00031688A0701D512A502E0490704D511A584
:10050000012401E000F009FB00210A2206F1240782
:1005100009E0B0FBF2FCB0FBF2F302FB1C00303050
:1005200078541846491C0028F3D123462A46304601
:10053000BDE8F04100F0FABA000000002D00000014
:100540002B00000020000000F0B40D4601880905D2
:1005500002D5214C7C4402E01F4C7C440E34002127
:1005600000F1240608E002F00F071209E75D42EAF5
:1005700003721B097754491C52EA0307F3D102782E
:100580000023120704D5702D06D009B102231134BF
:100590002246F0BC00F0CABA01231034F8E770B567
:1005A00004460D462146106800F0B7FA0246294677
:1005B0002046BDE870400023C6E7D21D22F00703A5
:1005C000D3E90023C0E70368126843F02003036007
:1005D0000823C3610023B7E75A8F00002DE9F05FBD
:1005E000894604464FF0000ADFF874B1FB44C0F8B6
:1005F00020A02046E1688847002874D0252806D02E
:10060000D4E901219047206A401C2062F1E70026CE
:100610005F462046E16888472028054607DB312DE4
:1006200005D2781910F8200C08B10643F1E7B0079D
:1006300001D526F00406C4F81CA00027C4F818A0B1
:100640002A2D09D0284603F0B5FF38B304EB8708FC
:10065000303DC8F8185019E059F8041B204604EB47
:1006600087029161E1688847012F054618D1E0694A
:10067000002820DA26F020061DE0D8F8180000EB4C
:10068000800005EB40003038C8F818002046E168CB
:100690008847054603F08EFF0028EED1012F0AD0CF
:1006A0002E2D08D12046E16888477F1C0546022F81
:1006B00046F02006C4DBA069002803DA404246F079
:1006C0000106A061F00701D026F010066C2D0BD0BA
:1006D000682D09D04C2D39D06A2D35D0742D35D0E8
:1006E0007A2D33D016E038E0E1682F46204688475F
:1006F000B842054609D16C2F26D04FF48060E168DE
:10070000064320468847054604E06C2F1AD04FF474
:10071000807006430DB3A5F14100192802D8203599
:1007200046F400664A462946204626604E46FFF7B4
:1007300039FD80B101280BD0F61D26F0070000F12D
:10074000080956E74020E4E78020D8E70020D6E7F4
:1007500006F104094DE7284652E7206ABDE8F09FFC
:10076000EA8E000070B5064600F0FAF80468054607
:1007700030460A22002100F069FB2C6070BD401E4B
:10078000CAB210F8011F8A4202D00029F9D1002014
:10079000704710B5431E13F8014F002CFBD105E044
:1007A00011F8014B002C03F8014B03D0521EF7D275
:1007B0000021197010BD30B505460B462A4613F8C6
:1007C000014B12F8010B08B1A042F8D01CB100286F
:1007D00002D06D1CF1E7284630BD40EA010310B598
:1007E0009B070FD1042A0DD310C808C9121F9C42C1
:1007F000F8D020BA19BA884201D9012010BD4FF0B3
:10080000FF3010BD1AB1D30703D0521C07E00020FF
:1008100010BD10F8013B11F8014B1B1B07D110F85C
:10082000013B11F8014B1B1B01D1921EF1D118465F
:1008300010BD10B5431C02E010F8011B71B1810717
:10084000FAD14FF0013202C88C1A8C4314EAC2115B
:10085000F9D0C01A0A0603D0C01E10BDC01A10BDC0
:100860000A0401D0801E10BD0902FCD0401E10BD3C
:10087000032A40F2308010F0030C00F0158011F8CC
:10088000013BBCF1020F624498BF11F801CB00F8A4
:10089000013B38BF11F8013BA2F1040298BF00F8F8
:1008A00001CB38BF00F8013B11F0030300F00683D1
:1008B000083AC0F0088051F8043B083A51F804CBDC
:1008C000A0E80810F5E7121D5CBF51F8043B40F8A2
:1008D000043BAFF30080D20724BF11F8013B11F8AD
:1008E00001CB48BF11F8012B24BF00F8013B00F8F1
:1008F00001CB48BF00F8012B704702F0FF0343EA29
:10090000032242EA024200F002B84FF0000204293A
:10091000C0F0128010F0030C00F00483CCF1040C42
:10092000BCF1020F18BF00F8012BA8BF20F8022B62
:10093000A1EB0C0100F0F6BA5FEAC17C24BF00F81D
:10094000012B00F8012B48BF00F8012B70477047BE
:10095000704770477047000000487047340100201E
:10096000004870472C01002070477047704770475F
:1009700038B504460A4600206946AFF300800028D7
:1009800008BF38BD02460099204600F0FDFA01205C
:1009900038BD012000F0EDBDF8B5AFF3008005468D
:1009A00000200C46102000BF0646A819A0420DD911
:1009B000324669460020AFF30080070008BF00F010
:1009C000D8FD0098A04218BF0546C419FFF7C4FF20
:1009D00005600746F01D20F007004619284600F084
:1009E0000AF8B44208BFF8BDA21B31463868BDE81A
:1009F000F84000F0C9BA00210160C0E90110704759
:100A00001020704753EA020C00F069802DE9F04B8A
:100A10004FF00006002B1FBFB3FA83F503FA05F46D
:100A200024FA05F65E4012BF1643B2FA82F502FAC6
:100A300005F4C5F120051EBF22FA05FC44EA0C04AA
:100A4000203556EA044C4FEA144418BF641C4FF09A
:100A500000084FF00009904271EB030C39D30029D4
:100A600019BFB1FA81F701FA07F6B0FA80F700FA78
:100A700007F6C7F120071EBF20FA07FC46EA0C065E
:100A80002037B6FBF4FCA7EB0507103F07F01F0B60
:100A9000CBF120060CFA0BFB2CFA06F644BFB3464A
:100AA0000026202FA4BF5E464FF0000B5BEA060C29
:100AB00008BF4FF0010B19EB0B09ABFB027C48EBB5
:100AC0000608C01B06FB02CC0BFB03CC71EB0C0130
:100AD000C1E70B46024641464846BDE8F08B13B5D8
:100AE0004FF000004FF00001AFF30080BDE81C4064
:100AF000704710B5FFF734FF006810BD10B504460D
:100B0000FFF72EFF046010BD09684A0501D540B209
:100B10007047C905FCD500B2704709684A0501D580
:100B2000C0B27047C905FCD580B270472DE9F047C7
:100B30000D4699469246044600F12408016888064D
:100B400004D5E06921F01001216000E00120A842F5
:100B500001DD471B00E00027A1697A1902EB0900BB
:100B6000081AA0612078C00602D42046FFF760FC76
:100B7000002608E0D4E901211AF806009047206A0F
:100B8000401C761C20624E45F4DB2078C0060AD556
:100B90002046FFF74DFC06E0D4E9012130209047C4
:100BA000206A401C2062381EA7F10107F4DC07E030
:100BB000D4E9012118F805009047206A401C206202
:100BC000281EA5F10105F3DC2046FFF747FC20783D
:100BD000000602D50220BDE8F0870120FBE711687E
:100BE0000268006A530501D508700AE0D30501D5F3
:100BF000088006E0130603D5C217C1E9000200E031
:100C0000086001207047000001694A1C02610878F1
:100C1000704700B58FB0CDE901310021059105493C
:100C20007944CDE9031011466846FFF7D7FC0FB0B1
:100C300000BD0000E5FFFFFF0A6802F8010B0A6033
:100C40007047D1E900239A4202D2531C0B60107006
:100C5000704710B5436913B1AFF3008001E0FFF7AF
:100C60000EFC012010BD127800F124010A70002250
:100C70004A700122EDE711684FF0FF32E9E700000A
:100C8000074B70B50D467B44FFF7C3FF044628466B
:100C900000F04BFC10B14FF0FF3070BD204670BD2E
:100CA000F34C00002DE9FF5F15468A460446DFF845
:100CB000AC80F8440027D8E900103E46CDE900108A
:100CC00010E03AF816106A4602A800F032FC411C07
:100CD00007D02178890603D5E269391891420DD8E9
:100CE0000744761C2078800602D5E069B84205DD0D
:100CF000AE42E6DB3AF816000028E2D1A069C01B3C
:100D0000A0612046FFF794FBD8E90010CDE9001060
:100D1000002017E03AF818106A4602A800F009FC13
:100D2000B0F1FF3F81460BD000250DF1080B05E027
:100D3000D4E901211BF8050090476D1C4D45F7D300
:100D400008F10100B0428046E4DB206A38442062AA
:100D50002046FFF783FBBDE8FF9F00008A88000064
:100D60002DE9F0418046D21D22F007020025D2E98C
:100D70000002F52915A614D0011E72F1000106DA51
:100D80000023D0EB030063EB020211A608E0D8F8C1
:100D900000108B0701D50FA602E0490701D50EA66A
:100DA00001251146002408F1240704E000F006F9AB
:100DB00030323A55641C50EA0102F7D12B463246D4
:100DC00021464046BDE8F041FFF7B0BE00000000FC
:100DD0002D0000002B0000002000000030B4002196
:100DE00000F1240408E002F00705D208303542EA99
:100DF0004372DB086554491C52EA0305F3D10468C9
:100E0000002310A2250708D504F020040C4304D0C9
:100E1000C46901230CA2641EC46130BCFFF786BE06
:100E200010B5044621461068FFF777FE02462046BB
:100E3000BDE810400023D1E7D21D22F00701D1E91F
:100E40000023CBE700000000300000002DE9F04750
:100E500091460F4680460446002614F8015B2DB1EA
:100E600000F08AF80068405DC007F6D12B2D02D053
:100E70002D2D18D0641E4A463946204600F006FB48
:100E800027B13968A14201D1C7F800804FF00204B0
:100E900071050BD54042002803DDFFF761FD0460BA
:100EA000A007BDE8F08746F48066E4E70028F8DA9A
:100EB000FFF756FD04606FF00040F2E710B5203AEE
:100EC000C0F00B80B1E81850203AA0E81850B1E803
:100ED0001850A0E81850BFF4F5AF5FEA027C24BFB9
:100EE000B1E81850A0E8185044BF18C918C0BDE8B0
:100EF00010405FEA827C24BF51F8043B40F8043B79
:100F000008BF7047D20728BF31F8023B48BF11F82D
:100F1000012B28BF20F8023B48BF00F8012B704787
:100F20004FF0000200B5134694469646203922BF82
:100F3000A0E80C50A0E80C50B1F12001BFF4F7AFCD
:100F4000090728BFA0E80C5048BF0CC05DF804EBAF
:100F5000890028BF40F8042B08BF704748BF20F81D
:100F6000022B11F0804F18BF00F8012B70470000D2
:100F7000004870472C01002010B500F027FB001D31
:100F800010BD00BF35660000034640688C4600284F
:100F900018BF88423CBF03464068F8D3186818441D
:100FA000884207D00CF1030020F00700001D411A11
:100FB000521A0146081D0A60FFF7B2B930B5B0F108
:100FC0000A024FEA900E71F100034EEA817EB0EB07
:100FD0000E0061EB91014FEA101E4EEA017E10EB0C
:100FE0000E0041EB11114FEA102E4EEA016E10EB8C
:100FF0000E0041EB11214FEA104E4EEA014E10EB6C
:101000000E0041EB1141401841F100014FEAD000C0
:1010100040EA41704FEAD10110EB80054FEA8104AC
:1010200044EA907444EB01046D1944EB0404521B30
:10103000A3414FF0000348BF0A3200D530BD401C29
:1010400041F1000130BD70472DE9FF4F0C461E46AF
:101050004FF0FF378BB0D2E90001DDF860800A90D5
:101060008A46C1F30A5505B93D46002108464FF0AE
:101070000000BAF1000F00F4400005DA00EB800038
:101080004FF4400101EA50004FEA9059B9F1010FC5
:1010900000DDB9460A9850EA4A000ED044F61050D6
:1010A000A5F2FF3545432F14B8F1000F1ED075424D
:1010B000291E1EDDC9F100021CE0B8F1010F4FF03E
:1010C000000001D0302103E0F24305E02154401C30
:1010D000B042FBDB30460022002121540B99C1F8BD
:1010E0000880C1E900200FB0BDE8F08FBD1B6D1C6A
:1010F000DEE74A4600DA694206A800F0B9FA06AB14
:1011000093E8070003AB83E8070050460A9900F014
:10111000ADFB8DE80700A0F500501F380090039844
:10112000002D09DD42F21F014A46084403A903903D
:10113000684600F00CFE08E0A0F500504A461F3853
:1011400003A90390684600F016FE8DE8070000042E
:10115000000C03D04FF0FF30410800E01046B8F11A
:10116000000F03D00022009215461EE0751E05D424
:10117000FFF724FF303262556D1EF9D5B3460122C8
:10118000084302D000227F1C04E02078302801D1DF
:1011900000227F1E002A099786D01DE0112D07DA54
:1011A000FFF70CFF303262556D1C50EA0102F5D199
:1011B000084302D00098C8B10EE00021681E05E087
:1011C000235C625C63542254401E491C8142F7DB5D
:1011D000AB46A81B401E0990002004F80B000B989A
:1011E000099AC0F80880C0E9002B7CE711264FF06F
:1011F000000859E72DE9F04F88460446D21D22F039
:10120000070191B0D1E90001CDE90A0103F055F9D8
:1012100002460B98C00F01D02D2007E020688107FF
:1012200001D52B2002E0202101EAC000032A099009
:1012300001D0072A05DB03464146204600F0CAF9E3
:101240000BE12078800601D5E06900E00620B8F1C6
:10125000650F814606D0B8F1660F18D0B8F1670F58
:1012600070D131E00020B9F1110F009001DB1123A2
:1012700001E009F101030AAA01A90CA8FFF7E4FEA5
:10128000DDE90C70002609F10105834647E00120E5
:101290004B4600904FF000470AAA01A90CA8FFF79F
:1012A000D3FEDDE90DB00C995D46002610B909F1B9
:1012B00001000D18B9EB050003D4C0F1FF3609F1A8
:1012C0000105A5EB09002BE0B9F1010F01DA4FF0A0
:1012D00001090020B9F1110F0090484601DD1123EA
:1012E00000E003460AAA01A90CA8FFF7ADFEDDE95C
:1012F0000C704D4600268346207800070AD4AB4583
:1013000000DA5D4601A8012D04DD411911F8011C28
:10131000302907D04F4502DA17F1040F04DA012013
:1013200082460FE06D1EEEE7002F02DCED1B3E440F
:1013300003E0781CA84200DD7D1CB81B00F1010A07
:101340004FF000472078000703D4AA4501DB4FF097
:10135000FF3A0021B7F1004F0DF143088DF843101B
:1013600024D002202B23002F01DA7F422D230A21D3
:10137000021EA0F1010000DC5FB197FBF1FC97FBBE
:10138000F1F201FB1C7C17460CF1300C08F801CD82
:10139000EEE7A8F1010003702188090501D5452178
:1013A00000E06521A0F1010800F8011C09980FA9CF
:1013B000A1EB0807FF1D00B10120411901EBEA7004
:1013C000A1693844081A401EA0612078C00602D4E2
:1013D0002046FFF72DF8099828B1D4E9012190475C
:1013E000206A401C20622078C00622D52046FFF7E4
:1013F0001FF81EE0002E04DBB34502DD01A8805D6E
:1014000000E03020D4E901219047206A401C20628E
:10141000761CAAF101005FEA000A0AD100F0D6F8B2
:10142000C0680168405CD4E901219047206A401CF3
:101430002062281EA5F10105DCDC07E0D4E90121CA
:1014400018F8010B9047206A401C2062381EA7F153
:101450000107F3DC2046FFF701F8032011B043E653
:1014600010B5436913B1AFF3008001E0FFF71AFC38
:10147000012010BD128800F1240182840022C28460
:101480000122EDE711684FF0FF32E9E72DE9F05F47
:10149000824615468B4600270AF10104B9460078BA
:1014A000302801D09DB113E014F8010B01277828F2
:1014B00003D0582801D045B10AE00DB1102D07D155
:1014C000002714F8010B102502E0082500E00A258A
:1014D0000026B0460EE005FB080005FB06F10127DB
:1014E0001FFA80F801EB1046B6F5803F00D3B946ED
:1014F00014F8010B294600F0ADF80028EBDABBF137
:10150000000F05D00FB1641E00E05446CBF8004038
:10151000B9F1000F06D0FFF723FA02210160C81EBF
:10152000BDE8F09F48EA0640FAE7007B00F0800043
:10153000704770B516460C460546FFF71DFD03685B
:1015400093F80101012806D0FF2C0FD8185D68B16F
:1015500001202C7070BDD3F807013246214603F2FA
:10156000071303442846BDE8704018474FF0FF308A
:1015700070BD10B500F0F8F8BDE8104000F0EFB80D
:101580007546FFF7F5FCAE4605006946534620F068
:101590000700854618B020B5FEF780FEBDE8204064
:1015A0004FF000064FF000074FF000084FF0000B1F
:1015B00021F00701AC46ACE8C009ACE8C009ACE8D2
:1015C000C009ACE8C0098D4670470000004870476C
:1015D0004C0100202DE9F0411F4604460326016816
:1015E000072A01F4006004DB08B116A505E016A582
:1015F00003E008B115A500E015A521F0100020605A
:10160000A069C01EA0610FB1401EA0612046FEF778
:101610000FFF4FB1D4E9012138469047206A401CA2
:101620002062C01C206206E0206AFAE7D4E90121AA
:1016300015F8010B9047761EF8D22046FEF70EFFF4
:10164000BDE8F0814E414E006E616E00494E46008D
:10165000696E66003A2800D2303820F02002412A14
:1016600001D3A2F13700884201D34FF0FF30704719
:101670002DE9F047814616468AB0334878440DC8B4
:101680008DE80D0030487844801C03AC0DC884E818
:101690000D0041F69B300844372190FBF1F290FB9E
:1016A000F1F5A5F1800501FB12041B3C02D5644253
:1016B000012000E00020DFF890A080460027FA44D7
:1016C000AAF1BE0A0DE0E00709D03246684607EBF2
:1016D00047010AEB810100F04EFB8DE80700641022
:1016E0007F1C002CEFD1184F7F44AC3F18E0E80777
:1016F00014D007EB04100DF1180A90E80E008AE8E8
:101700000E00C068F04201D198190890324606A92F
:1017100003A800F030FB03AB83E807006D10641CE6
:10172000002DE4D132466946B8F1000F03A802D07B
:1017300000F00DFB01E000F01EFBC9E90001C9F853
:1017400008200AB0BDE8F087E47F000010B5044629
:10175000AFF300802046BDE81040FEF78ABD0028A8
:1017600001D002F02EBF704710B5012805D000212E
:1017700003A000F021F8012010BD09A1F8E7000046
:1017800053494752544D454D3A204F7574206F666A
:101790002068656170206D656D6F727900000000D2
:1017A0003A2048656170206D656D6F727920636FB6
:1017B000727275707465640070B505460C460A2037
:1017C00000E06D1C02F000FF35B128780028F8D148
:1017D00002E0641C02F0F8FE14B120780028F8D171
:1017E000BDE870400A2002F0EFBE00004FF0013C5F
:1017F00050F8042B51F8043B9A4221D1A2EB0C0380
:10180000934313EACC1317D150F8042B51F8043B3F
:101810009A4215D1A2EB0C03934313EACC130BD1DC
:1018200050F8042B51F8043B9A4209D1A2EB0C0367
:10183000934313EACC13DBD04FF00000704700BF96
:10184000D01A01BAB1FA81F101F0180122FA01F0BF
:10185000CB40C1F12001DBB2C0B2C01A2CFA01F3B7
:10186000D11A914311EAC311E6D170475FEA400CE7
:1018700008BF91F0000F4FEA8C234FEAC12243EAE0
:1018800051514FEA1C5018BF00F5F0404FEA3000AC
:1018900018BF41F000415FEA6C5C00F02980BCF1A8
:1018A000FF3F08BF40F080407047130C06BF120492
:1018B0004FF0100C4FF0000C130E04BF12020CF18D
:1018C000080C130F04BF12010CF1040C930F04BF9A
:1018D00092000CF1020CD30F04BF52000CF1010C6A
:1018E00011464FF00002A0F11F00A0EB0C00704762
:1018F00011F0004F08BF704731F000413FF4D5AF01
:101900000B0C06BF09044FF0100C4FF0000C0B0E2F
:1019100004BF09020CF1080C0B0F04BF09010CF104
:10192000040C8B0F04BF89000CF1020CCB0F04BF19
:1019300049000CF1010CCCF12003A0EB0C0022FAC1
:1019400003F302FA0CF241EA030100F101007047CF
:1019500020F07F4C80EA030023F07F47ACEB0703C5
:1019600003F57C5300F0004003F1FF032DE98049AB
:101970004FEA154B09B44FEA144325EA0B4E24EA0B
:1019800003480FF2042606EB132749083E785FEA66
:10199000320203FB0667C7F5000707FB06F64FEAAE
:1019A00054374FEAD64606F1020607FB066CCCF127
:1019B000005C4FEA1C472CEA074C07FB06F40CFBC3
:1019C00006F504EB15464FEA961634BF00204FF09B
:1019D00000404FEAD13706FB07FC4FEA1C4C0CFBDA
:1019E0000BF7D21B03FB0CF761EB07010CFB0EF7A7
:1019F000B0EB074072EB17420CFB08F734BFA2EBC9
:101A00000742B2EB074261EB17414FEA0C444FEA41
:101A1000910706FB07FC4FEA1C4C0CFB0BF7B0EBE5
:101A2000C74072EB573203FB0CF734BFA2EBC7423F
:101A3000B2EBC74261EB57310CFB0EF7B0EBC700BE
:101A400072EB57720CFB08F734BFA2EBC702B2EB84
:101A5000C70261EB5771039F4FEA816141EA92111E
:101A600004EBCC044FEAD1374FEA826206FB07FC55
:101A700042EA90124FEA80604FEA1C4C0CFB0BF7D5
:101A8000D21B03FB0CF761EB07010CFB0EF7B0EB6D
:101A9000074072EB17420CFB08F734BFA2EB07427A
:101AA000B2EB074261EB17414FEA8C554FEA9107C1
:101AB00004EB9C2406FB07FC4FEA1C4C0CFB0BF7C9
:101AC000B0EBC74072EB573203FB0CF734BFA2EB0D
:101AD000C742B2EBC74261EB57310CFB0EF7B0EBDC
:101AE000C70072EB57720CFB08F734BFA2EBC702BA
:101AF000B2EBC70261EB577115EB4C254FEA8161E0
:101B000041EA92114FEA82624FEAD13742EA9012DB
:101B100006FB07FC44F100044FEA80604FEA1C4CCE
:101B20000CFB0BF7D21B03FB0CF761EB07010CFB63
:101B30000EF7B0EB074072EB17420CFB08F734BF0F
:101B4000A2EB0742B2EB074261EB174115EB1C1504
:101B50004FEA813141EA92414FEA823242EA9042B1
:101B60004FEA80304FEA0C7644F1000448EA034320
:101B70004EEA0B484FF0000EB2EB080C71EB030776
:101B800024BF624639464EEB0E0E4FF0000B001894
:101B9000524149414BEB0B0BB2EB080C71EB0307C5
:101BA0007BF1000B24BF624639464EEB0E0E4FF020
:101BB000000B0018524149414BEB0B0BB2EB080CE8
:101BC00071EB03077BF1000B24BF624639464EEBF5
:101BD0000E0E51EA020718BF46F0010616EB0E760C
:101BE00055F1000254F1000103D5BDE88901BDE8BB
:101BF0000088BDE88901BDE80048B619524141EBB3
:101C00000101A3F10103704780807F7E7D7C7B7A98
:101C10007978777676757473727171706F6E6E6D98
:101C20006C6C6B6A6A69686867666665646463633E
:101C300062616160605F5F5E5E5D5D5C5C5B5B5AC4
:101C40005A59595858575756565555555454535331
:101C500052525251515050504F4F4F4E4E4D4D4D8C
:101C60004C4C4C4B4B4B4A4A4A49494948484847D7
:101C70004747474646464545454444444443434315
:101C80004342424242414141002B26D4770021D0B9
:101C90001CB54FEA370703B44FF010004FF01001A6
:101CA0004FF000000FBCBDE810400BF1010BBBF181
:101CB000010F08BF5FEA170722BF12F1010211F1FD
:101CC00001014FF0004143F1000300F0004043EAFE
:101CD00000007047F9D35708DAE746EA064613F1E1
:101CE000400F4FEA16461FDD13F1200FDFBF1643EA
:101CF0000A46002120335B42C8D0C3F1200746EAE0
:101D0000064602FA07F74FEA164646EA0706C3F107
:101D1000200722FA03F201FA07F721FA03F14FF044
:101D2000000342EA0702B1E746EA020646EA06462F
:101D30004FEA164646EA0106BCBF46EA0646360C9E
:101D40004FF000034FF000024FF000019EE72DE935
:101D5000C048934630B491E8380007C831EA400CD7
:101D600048BF34EA430C03D5FFF7F2FDFFF78CFFC1
:101D7000F0BCBDE800882DE9C048934630B491E836
:101D8000380007C810F0804F08BF13F0804F03D110
:101D900000F005F8FFF778FFF0BCBDE8008820F000
:101DA0007F4780EA030023F07F4C07EB0C03A3F589
:101DB0007C5300F00040A3F1FE0392F0000F00F00E
:101DC000B38095F0000F00F077802DE901494FEACC
:101DD00011404FEA144621EA004800FB06FC24EAC1
:101DE000064708FB06F607FB08F800FB07F718EBA9
:101DF00006484CEB164C4FEA124B18EB07484FEADB
:101E000015464CEB174022EA0B4E0BFB06FC25EA6D
:101E100006470EFB06F607FB0EFE0BFB07F71EEB55
:101E2000064E4CEB164C4FF000061EEB074E4CEBEB
:101E3000174B18EB0B0840F1000018EB0E0B58EB9A
:101E4000000840F100008F1A4FF000013CBFC94369
:101E5000661B14BFB5EB040C00213CBFC943F61B45
:101E60004FEA17444EEA8E0E27EA04454FEA1C4714
:101E700004FB07622CEA074C05FB07F70CFB05F691
:101E800004FB0CFC16EB074642EB174216EB0C4624
:101E900042EB1C421BEB060658EB0202414146EAAC
:101EA0009E0601D5BDE80189B619524141EB0101F9
:101EB000A3F10103BDE801894FEA14454FEA114738
:101EC00024EA054621EA074C05FB07F406FB07F761
:101ED0000CFB06F105FB0CFC11EB074144EB17442E
:101EE0004FEA124711EB0C4144EB1C4422EA074C29
:101EF00005FB07F206FB07F70CFB06F605FB0CFCDF
:101F000016EB074642EB174216EB0C4642EB1C451C
:101F10006A1854F1000148BF7047B619524141EBAD
:101F20000101A3F10103704795F0000F37D04FEA8C
:101F300011424FEA144721EA024624EA074C02FB09
:101F400007F106FB07F70CFB06F402FB0CFC14EB95
:101F5000074441EB17414FEA154714EB0C4441EBA2
:101F60001C4125EA074C02FB07F506FB07F70CFBB3
:101F700006F602FB0CFC16EB074645EB174516EB85
:101F80000C4645EB1C42121951F1000148BF704745
:101F9000B619524141EB0101A3F1010370474FEA29
:101FA00014454FEA114724EA054621EA074C05FB90
:101FB00007F106FB07F70CFB06F24FF0000605FBE6
:101FC0000CFC12EB074241EB174112EB0C4251EBB8
:101FD0001C4148BF7047921841EB0101A3F1010376
:101FE000704700BFFEE7704710B580210348FEF739
:101FF0008CFC00200249088010BD0000AC000020CD
:102000009400002070B50546002400BF00F088F958
:1020100080B90DA10E48FEF7CEFB044654B13A211B
:102020002046FEF7ACFB044614B1641C204670BD8C
:102030000020FCE7052002F07BFE681E85B2002D23
:10204000E4DC0020F3E700004950442C00000000CD
:10205000AC00002008B50121042001F0F5FE10209D
:102060008DF803008002ADF8000003208DF8020017
:1020700069463E4800F06EF900224FF480413B482B
:1020800000F03EFAFA2002F053FE01229103374895
:1020900000F036FA4FF4FA7002F04AFEFFF7A4FFA0
:1020A00033A1354802F0CCF902E0642002F040FE92
:1020B00032A133A000F0E6F80028F6D132A12E4874
:1020C00002F0BEF92FA133A000F0DCF8C82002F026
:1020D0002FFE2CA132A000F0D5F84FF4FA7002F0D8
:1020E00027FE33A1244802F0ABF903E04FF4FA7065
:1020F00002F01EFE21A131A000F0C4F80028F5D1A5
:1021000032A11D4802F09CF903E04FF4FA7002F08E
:102110000FFE1AA131A000F0B5F80028F5D133A1C7
:10212000154802F08DF903E04FF4FA7002F000FE5A
:1021300031A133A000F0A6F80028F5D138A10E484F
:1021400002F07EF903E04FF4FA7002F0F1FD38A1DD
:1021500039A000F097F80028F5D101204249087015
:1021600042A1054802F06CF908BD000000100140D2
:10217000302E2041540D0A00003801404F4B000022
:1021800041540D0A00000000312E205253540D0A14
:102190000000000041542B5253540D0A000000006F
:1021A00041542B434950434C4F53450D0A00000006
:1021B000322E2043574D4F44450D0A0041542B43C6
:1021C000574D4F44453D310D0A000000332E20414C
:1021D000542B4357444843500D0A000041542B43AD
:1021E00057444843503D312C310D0A00342E2043D2
:1021F000574A41500D0A0000474F542049500000F3
:1022000041542B43574A41503D2254726163792215
:102210002C226A6D6875616E6732220D0A0000001B
:10222000352E2043495053544152540D0A000000AA
:10223000434F4E4E4543540041542B434950535451
:102240004152543D22544350222C2262726F6B65DE
:10225000722D636E2E656D71782E696F222C313868
:1022600038330D0A0000000028000020362E2045DB
:1022700053503832363620496E6974204F4B0D0A60
:10228000000000002DE9F04104460D46902620464E
:10229000FEF7CFFA87B23A4621460D4802F0F4F82D
:1022A0000FE000F03DF848B929460A48FEF783FAE6
:1022B00020B1FFF799FE0020BDE8F0810A2002F06E
:1022C00037FD301EA6F10101CEB2EAD10120F3E7BD
:1022D00000440040AC00002030B589B004460D46F3
:1022E000FFF782FE2A4608A101A8FEF78BF80AA193
:1022F00001A8FFF7C7FF20B92A462146074802F088
:10230000C3F809B030BD000041542B434950534538
:102310004E443D25640D0A003E000000004400408C
:102320000A48008808B90120704708480088084911
:102330000988884203D1002004490880F4E7034853
:102340000088034908800120EEE700009400002087
:10235000960000202DE9F0410246002500260020CD
:1023600000230024002791F803C00CF00F0591F81A
:1023700003C00CF0100CBCF1000F03D091F802C0A8
:102380004CEA050591F800C0BCF1000F31D014688B
:1023900000202BE04FF0010C0CFA00F3B1F800C064
:1023A0000CEA03069E4220D183004FF00F0C0CFA7A
:1023B00003F7BC4305FA03FC4CEA040491F803C09C
:1023C000BCF1280F06D14FF0010C0CFA00FCC2F84A
:1023D00014C00AE091F803C0BCF1480F05D14FF0DA
:1023E000010C0CFA00FCC2F810C0401C0828D1D324
:1023F0001460B1F800C0BCF1FF0F34DD5468002058
:102400002EE000F1080C4FF0010808FA0CF3B1F8C7
:1024100000C00CEA03069E4221D183004FF00F0C4E
:102420000CFA03F7BC4305FA03FC4CEA040491F8E8
:1024300003C0BCF1280F05D100F1080C08FA0CF814
:10244000C2F8148091F803C0BCF1480F07D100F125
:10245000080C4FF0010808FA0CF8C2F81080401C74
:102460000828CED35460BDE8F0810000F0B50A46DC
:10247000002300240021002500F00046B6F1004FA3
:1024800002D11D4EF16901E01B4E7168C0F3034596
:1024900083B200F44016B6F5401F08D121F07061F8
:1024A000154E766826F07066134F7E6012E000F4D9
:1024B0008016B6F5801F06D1032606FA05F4A1435F
:1024C00041F0706106E0460D360103FA06F6B143AD
:1024D00041F0706122B1460D360103FA06F6314330
:1024E00000F00046B6F1004F02D1034EF16101E069
:1024F000014E7160F0BD00000000014001617047B5
:102500000AB1016100E04161704700BFFEE72DE9BB
:10251000FC4104460D4616466B4606223B216820C8
:1025200000F00FFA0746BFB99DF801009DF80010B2
:1025300040EA012000B220809DF803009DF80210BF
:1025400040EA012000B228809DF805009DF80410A3
:1025500040EA012000B230803846BDE8FC812DE918
:10256000FC4104460D4616466B4606224321682070
:1025700000F0E7F90746BFB99DF801009DF800108B
:1025800040EA012000B220809DF803009DF802106F
:1025900040EA012000B228809DF805009DF8041053
:1025A00040EA012000B230803846BDE8FC810000DE
:1025B00010B500200E4908600E48006820F47040F5
:1025C0000C4908600846006840F44050086000204C
:1025D0000949C1F8AC0100F011F801200449086074
:1025E00000F00CF800200449C1F8A80110BD00005B
:1025F000A8812142040C01400080214210B5022034
:1026000002F0BCFB10BD000008B50121082001F05C
:102610001BFC4FF44060ADF8000010208DF8030063
:1026200003208DF8020069460448FFF793FE4FF43B
:1026300040610248FFF762FF08BD0000000C014046
:1026400010B500200E4908600E48006820F4704064
:102650000C4908600846006840F4405008600120BA
:102660000949C1F8AC01FFF7C9FF0120044908601E
:10267000FFF7C4FF00200449C1F8A80110BD000005
:10268000A8812142040C01400080214270B505461A
:1026900000241648006820F4704014490860084679
:1026A000006840F400400860002614E00020104953
:1026B0000860FFF7A3FF01200E49C1F8A8016006DA
:1026C000040E0B487C38006808B1601CC4B2FFF7E8
:1026D00095FF701CC6B2082EE8DB15B9FFF7B0FFF6
:1026E00001E0FFF765FF204670BD0000040C0140CB
:1026F000A88121420080214270B50446124800683A
:1027000020F47040104908600846006840F44050CA
:10271000086000200D490860002512E0E0090B491F
:10272000091D08606006040E01200949C1F8A801CE
:10273000FFF764FF002005490860FFF75FFF681C92
:10274000C5B2082DEADB70BD040C0140A88121420E
:102750000080214210B50E48006820F470400C49FA
:1027600008600846006840F44050086001200949AC
:1027700008600949C1F8A801FFF740FF002005499A
:102780000860FFF73BFF00200349C1F8A80110BD16
:10279000040C0140AC8121420080214210B50E485A
:1027A000006820F470400C4908600846006840F456
:1027B000405008600020094908600949C1F8AC018F
:1027C000FFF71CFF0120054908600549C1F8AC016D
:1027D000FFF714FF10BD0000040C0140A881214246
:1027E0000080214210B500241448006820F4704095
:1027F000124908600846006840F400400860012063
:102800000F490860FFF7FAFE01200E49C1F8A80140
:10281000FFF7F4FE07E0601CC4B2FA2C03DDFFF7FB
:10282000BDFF012010BD0648803800680028F2D1A5
:102830000349091F086000BFF4E70000040C0140D1
:10284000AC8121420080214238B50121084601F0C7
:10285000FBFA0121042001F0F7FA4FF40040ADF833
:10286000000010208DF8030003208DF80200694657
:102870002248FFF76FFD01212148FFF7F7FD0020F7
:1028800020490860FFF7C0FE80216B2000F0DDF8D2
:10289000642002F04DFA00216B2000F0D6F80320EE
:1028A00000F091F8002000F086F8322000F0B0F837
:1028B0000021382000F0C9F800216A2000F0C5F896
:1028C0000021232000F0C1F88021372000F0BDF85E
:1028D000752000F019F80446682C0BD101216B20FB
:1028E00000F0B3F800216C2000F0AFF8322000F0C7
:1028F0008FF801E0012038BD0020FCE7000801400E
:1029000000023000BC01214270B50446FFF722FFEF
:10291000D020FFF7F1FEFFF765FF2046FFF7ECFE42
:10292000FFF760FFFFF716FFD120FFF7E5FEFFF787
:1029300059FF0020FFF7AAFE0546FFF72FFF2846A4
:1029400070BD2DE9F04106460F4614461D46FFF7BF
:1029500001FF002141EA4601C8B2FFF7CDFEFFF7B3
:1029600041FF20B1FFF71AFF0120BDE8F081384692
:10297000FFF7C2FEFFF736FFFFF7ECFE012101EB88
:102980004601C8B2FFF7B8FEFFF72CFF0DE0012C9F
:1029900004D10020FFF77AFE287003E00120FFF742
:1029A00075FE2870601EC4B26D1C002CEFD1FFF7BD
:1029B000F5FE0020D9E710B50446E006010E1C2004
:1029C00000F043F810BD10B50446E006010E1B20D0
:1029D00000F03BF810BD70B504460025BC2C01DBAF
:1029E000012510E0622C01DB02250CE02A2C01DB22
:1029F000032508E0142C01DB042504E00A2C01DB8C
:102A0000052500E0062529461A2000F01EF870BDB5
:102A100070B50446B4F57A7F01DD4FF47A74042C66
:102A200000DA04244FF47A7090FBF4F0401EC5B233
:102A30002946192000F009F80546264604EBD67110
:102A4000C1F34F00FFF7C7FF70BD70B505460C46D8
:102A5000FFF780FED020FFF74FFEFFF7C3FE18B14F
:102A6000FFF79CFE012070BD2846FFF745FEFFF7EB
:102A7000B9FE2046FFF740FEFFF7B4FE18B1FFF79E
:102A80008DFE0120EFE7FFF789FE0020EBE72DE93F
:102A9000F04105460E4617469846FFF75BFE0021BB
:102AA00041EA4501C8B2FFF727FEFFF79BFE20B1C0
:102AB000FFF774FE0120BDE8F0813046FFF71CFEF1
:102AC000FFF790FE00240CE018F80400FFF714FE56
:102AD000FFF788FE18B1FFF761FE0120EBE7601CED
:102AE000C4B2BC42F0DBFFF759FE0020E3E710B5AB
:102AF0000446207B012802D12068FDF711FC00204C
:102B000020606060A060207310BD02460023012396
:102B10000DE002F07F000870D2092AB1087840F079
:102B200080000870491C01E0184670475B1C042BAC
:102B3000EFDD4FF0FF30F8E770B504460E46002594
:102B4000206898B9012020733046FDF7BAFB206059
:102B50002068E0B100206060A66003E000202168EA
:102B600048556D1CA068A842F8D810E002202073D8
:102B700003E00020216848556D1CA068A842F8D8E1
:102B800000206060A068B04201D20020206070BDCB
:102B90002DE9FF5F07460D4690463846FDF749FE92
:102BA00086B22846FDF745FE1FFA80FA4FF000096D
:102BB000F01DFDF786FB04461CB9012004B0BDE8FA
:102BC000F09FF11D2046FDF7A0FE12A001682160D4
:102BD0008088A080324639462046FDF7DAFD284637
:102BE000FDF727FE83460120002100915B462A461F
:102BF000CDE90208019121460A2000F05FF910B9E1
:102C00004FF0000901E04FF001092046FDF788FB75
:102C10004846D3E724637273702F00002DE9FF4FFD
:102C200083B082468B469146159C00250020029079
:102C30000F2701904846FDF7FCFD0FFA80F8B9F127
:102C4000000F03D1012007B0BDE8F08F08F10200AA
:102C5000384487B2109808B145F00205129878B14F
:102C600045F004051298FDF7E4FDC0B202901398F8
:102C7000FDF7DFFD01460298001D0844384487B285
:102C8000119820B1012804D0022808D104E000BF27
:102C900007E045F00C0504E045F0140501E00220D2
:102CA000D1E700BF149808B145F02405BAF1000F30
:102CB00002D0BBF1000F01D10320C4E745F0C005ED
:102CC0005046FDF7B6FD06465846FDF7B2FD3044C6
:102CD000001D384487B239462046FFF72DFF206893
:102CE00008B90420AFE739462068FDF70EFE102131
:102CF0006268501C606020688154D4E90023D118B8
:102D0000781FFFF702FF00B201900198002804DA53
:102D10002046FFF7ECFE052095E76168019808441E
:102D2000606000216268501C60602068815404214A
:102D30006268501C6060206881544D216268501C9C
:102D400060602068815451216268501C6060206876
:102D5000815454216268501C60602068815462680C
:102D6000501C60602068815404216268501C6060BF
:102D7000206881546168481C60602068455406984A
:102D8000010A6268501C6060206881540698C1B2D4
:102D90006268501C606020688154C8F30721626833
:102DA000501C6060206881546268501C606020681C
:102DB00000F80280D4E90012881842464946FDF71F
:102DC000E8FC60684044606005F00400B8B3002689
:102DD000139808B938A013901298FDF72AFD86B20F
:102DE000310A6268501C6060206881546268501C1F
:102DF000606020688654D4E900128818324612991F
:102E0000FDF7C7FC6068304460601398FDF711FD62
:102E100086B2310A6268501C606020688154626822
:102E2000501C606020688654D4E90012881832462D
:102E30001399FDF7AEFC60683044606000BF05F098
:102E40008000C8B15046FDF7F4FC86B2310A6268D2
:102E5000501C6060206881546268501C606020686B
:102E60008654D4E90012881832465146FDF791FC89
:102E700060683044606000BF05F04000C8B158464B
:102E8000FDF7D7FC86B2310A6268501C606020688A
:102E900081546268501C606020688654D4E9001236
:102EA000881832465946FDF774FC6068304460600B
:102EB00000BF0020C7E60000000000002DE9FF4F22
:102EC00083B0834617469946139C002500260020B0
:102ED000029001908046BBF1000F03D1012007B0A2
:102EE000BDE8F08F00260AE00498805D232803D017
:102EF0000498805D2B2801D10220F0E7761C04980D
:102F0000805D0028F0D148F03008119808B148F0F1
:102F1000010806EB0900851C109820B1012804D097
:102F200002280AD105E000BF09E048F00208AD1C04
:102F300005E048F00408AD1C01E00320CFE700BF26
:102F40008FB33878022821D14FF0000A00BF5046D5
:102F50000AF1010A385C7D28F9D1AAF1030A0AF1C5
:102F6000070002900298A9EB000AE81CA0EB0A01F6
:102F70002046FFF7E1FD206808B90420AFE7EA1C0E
:102F8000A2EB0A012068FDF7C0FC19E0691D20468C
:102F9000FFF7D2FD206808B90420A0E7691D20686A
:102FA000FDF7B3FC0CE0FFE7691D2046FFF7C4FD09
:102FB000206808B9042092E7691D2068FDF7A5FC88
:102FC0006168481C6060206800F80180D4E9000254
:102FD00081182846FFF799FD01900198002804DA2E
:102FE0002046FFF784FD052079E7616801980844D1
:102FF0006060C6F307216268501C606020688154DD
:103000006268501C606020688654D4E900128818F9
:1030100032460499FDF7BDFB60683044606010984B
:1030200060B14FEA1B216268501C606020688154C7
:103030006268501C6060206800F802B0C7B1387840
:1030400002280BD1D4E9001288183946029AFDF7FC
:103050000FFC616802980844606009E0D4E900123E
:1030600088184A463946FDF703FC606848446060AA
:10307000002034E770B505460C4604212046FFF7D2
:103080005BFD206808B9012070BD40216268501CBA
:1030900060602068815402216268501C6060206872
:1030A000815429126268501C6060206881546268F3
:1030B000501C6060206885540020E5E770B5054627
:1030C0000C4604212046FFF737FD206808B901208F
:1030D00070BD70216268501C6060206881540221BC
:1030E0006268501C60602068815429126268501C1C
:1030F0006060206881546268501C6060206885545C
:103100000020E5E770B505460C4604212046FFF790
:1031100013FD206808B9012070BD50216268501C61
:1031200060602068815402216268501C60602068E1
:10313000815429126268501C606020688154626862
:10314000501C6060206885540020E5E770B5054696
:103150000C4604212046FFF7EFFC206808B9012047
:1031600070BD62216268501C606020688154022139
:103170006268501C60602068815429126268501C8B
:103180006060206881546268501C606020688554CB
:103190000020E5E72DE9FF5F8046174699460E9C23
:1031A0000026B246B3460025B8F1000F03D1012036
:1031B00004B0BDE8F09F0BE057F8250008B90220E5
:1031C000F6E757F82500FDF734FB0644681CC5B246
:1031D0004D45F1DB09EB4900801C00EB060A0AF1C2
:1031E00005012046FFF7A8FC206808B90320DFE7A7
:1031F00082216268501C606020688154D4E900021A
:1032000081185046FFF781FC0FFA80FBBBF1000FDD
:1032100004DA2046FFF76BFC0420C9E760685844D5
:1032200060604FEA18216268501C60602068815419
:103230006268501C6060206800F80280002524E06D
:1032400057F82500FDF7F5FA0646C6F30721626830
:10325000501C6060206881546268501C6060206867
:103260008654D4E90023D01857F825103246FDF7CC
:1032700090FA6068304460600198C1B26268501C86
:10328000606020688154681CC5B24D45D8DB0020C1
:103290008EE7F0B504460D46264601230020106057
:1032A000002114E0775C07F07F07106807FB03003C
:1032B0001060705C00F0800008B9481CF0BDDB01B4
:1032C000B3F5001F02D36FF00100F7E7491CA942D4
:1032D000E8DB4FF0FF30F1E72DE9F84380460C467C
:1032E00015461E462F2108F10600FDF748FA07464D
:1032F0000020009017B90120BDE8F8837F1C6A46C2
:10330000042108F10100FFF7C4FF2520FCF7D9FFD5
:103310002060206808B90220EEE725212068FDF72B
:10332000F4FA242239462068FDF7A2FA24370098DF
:103330002C3830803188481CFCF7C3FF286028688F
:1033400020B92068FCF7ECFF0320D5E73288511C38
:103350002868FDF7DAFA328839462868FDF788FAD6
:103360000020C9E701464878022801D001207047B3
:10337000887810B18878012801D1C878F7E7FF2054
:10338000F5E700002DE9FC5F81460D4614461E4618
:10339000DDE90C8B99F8000000F00F0A0020019085
:1033A0000AF008000090CAF341008BF8000001AA5F
:1033B000042109F10100FFF76CFF4844471C019804
:1033C000022802D30AF0010010B1FF20BDE8FC9FE3
:1033D0007878397840EA012020802088801C019983
:1033E000884201D9FF20F1E754A1B81CFDF7E3F9A9
:1033F00008B10F20EAE79BF8000020B101283DD07A
:10340000022877D13BE0009808B1FF20DEE7218851
:10341000481CFCF756FF2860286808B9FF20D5E74C
:103420002288511C2868FDF770FA2288B91C286888
:10343000FDF71EFA0198801E2188401AA8F80000A6
:10344000B8F80010481CFCF73CFF3060306820B929
:103450002868FCF765FFFF20B8E7B8F80020511C8A
:103460003068FDF752FAB8F80020B4F800C0BB1C71
:103470000CEB03013068FDF7FBF94FE000BF20883B
:10348000801C0199884201D9FF209FE72088C01C39
:10349000395C2088801C385C41EA00210E9801804C
:1034A0000E9808B9FF2091E72188481CFCF709FF16
:1034B0002860286808B9FF2088E72288511C2868FE
:1034C000FDF723FA2288B91C2868FDF7D1F9019885
:1034D000001F2188401AA8F80000B8F80010481C06
:1034E000FCF7EFFE3060306828B92868FCF718FF59
:1034F000FF206BE710E0B8F80020511C3068FDF7A2
:1035000004FAB8F80020B4F800C03B1D0CEB03012E
:103510003068FDF7ADF901E0FF2057E700BF2B2130
:103520002846FDF72CF920B923212846FDF727F975
:1035300008B1FF204AE7002048E7000024637265D5
:103540007100000001464878022801D00120704730
:10355000887820B9C8780A2801D10020F7E701202F
:10356000F5E701464878022801D0012070478878A5
:1035700020B9C8780A2801D10020F7E70120F5E733
:1035800001464878022801D001207047887820B988
:10359000C8780A2801D10020F7E70120F5E70246A4
:1035A0005078022801D0012070479078B0EB112F9D
:1035B00005D1D078CBB2984201D10020F4E70120A8
:1035C000F2E70000F8B50446FF2720780511012D29
:1035D00001DB0E2D01DD3846F8BD032D24D100207E
:1035E00000906A460421601CFFF753FE2044461CED
:1035F0000098022803D3207800F0010008B1FF20D2
:10360000EAE77078317840EA0120801C009988420E
:1036100001D9FF20E0E706A1B01CFDF7CCF808B106
:103620000F2700E0032700E02F463846D4E70000CC
:1036300024637265710000000146FF208A78A2B9F8
:10364000CA78142A11D10A7932B1012A05D0022A86
:1036500004D0802A06D103E000BF00BF002003E0B1
:10366000012001E0022000BF00BF70470146012099
:103670008A781AB9CA781E2A00D10020704700BF84
:10368000FEE7704770B5002100230F22C47804B311
:10369000154C246804F4E064C4F5E064210AC1F127
:1036A0000403CA40447804FA03F1847814402143A7
:1036B00009010E4C0678A155047804F01F05012479
:1036C000AC4005786D11AD0005F1E025C5F800416D
:1036D00009E0047804F01F050124AC40044D06788D
:1036E000761145F8264070BD0CED00E000E400E0E6
:1036F00080E100E002490143024A11607047000086
:103700000000FA050CED00E030B58BB0002007900A
:10371000089009900A90012530A032A333A235A168
:103720000090404800F08CFE07A800210291039110
:10373000CDE9041000912B0228A2019129A12BA010
:10374000FFF76CFA002842D1089A91B20798FEF769
:10375000C3FDFA20FEF756FC0446002C33D0204669
:10376000FFF730FF02282ED12046FFF7FBFD062889
:1037700023D2DFE800F003090E13181D2AA12948FF
:1037800000F05EFE00251DE02CA1264800F058FE4A
:1037900018E031A1234800F053FE13E037A121487F
:1037A00000F04EFE0EE03DA11E4800F049FE09E08B
:1037B00043A11C4800F044FE04E04CA1194800F06D
:1037C0003FFE00BF00BF07A8FFF791F903E04EA13D
:1037D000144800F035FE28460BB030BD3536313682
:1037E00038333900746573740000000037373234A1
:1037F000370000004F6E654E65745F4465764C6916
:103800006E6B0D0A50524F49443A2025732C0941E2
:103810005549463A2025732C0944455649443A25D2
:10382000730D0A0000380140546970733A09C1AC45
:10383000BDD3B3C9B9A60D0A000000005741524ECE
:103840003A09C1ACBDD3CAA7B0DCA3BAD0ADD2E9A6
:10385000B4EDCEF30D0A00005741524E3A09C1AC07
:10386000BDD3CAA7B0DCA3BAB7C7B7A8B5C4636C49
:1038700069656E7469640D0A000000005741524E7C
:103880003A09C1ACBDD3CAA7B0DCA3BAB7FECEF12A
:10389000C6F7CAA7B0DC0D0A000000005741524E1F
:1038A0003A09C1ACBDD3CAA7B0DCA3BAD3C3BBA786
:1038B000C3FBBBF2C3DCC2EBB4EDCEF30D0A0000D8
:1038C0005741524E3A09C1ACBDD3CAA7B0DCA3BA26
:1038D000B7C7B7A8C1B4BDD328B1C8C8E7746F6B68
:1038E000656EB7C7B7A8290D0A0000004552523AC5
:1038F00009C1ACBDD3CAA7B0DCA3BACEB4D6AAB4B2
:10390000EDCEF30D0A0000005741524E3A094D51D9
:1039100054545F5061636B6574436F6E6E6563747E
:10392000204661696C65640D0A00000070B588B0BE
:1039300005460C460020049005900690079023460B
:103940002A4610A1174800F07BFD2046FCF771FFC6
:10395000064604A8012100220223CDE90032CDE968
:1039600002103346224629460A20FFF7A7FA38B943
:10397000059A91B20498FEF7AFFC04A8FFF7B7F8D8
:1039800008B070BD5075626C69736820546F7069BF
:10399000633A2025732C204D73673A2025730D0A56
:1039A00000000000003801402DE9F04190B00746CA
:1039B00000200C900D900E900F900B900A900990A3
:1039C0000890002607900025002480463846FFF71F
:1039D000F9FD0646F01E0D2874D2DFE800F02B77C3
:1039E000809AB6DBBFDBCDDBDBDB070008AB0BAAC5
:1039F0000AA93846FFF770FC0546D5B9BDF8200086
:103A000000907DA18548DDE90A2300F019FD0CAA8C
:103A1000DDE90A01FFF7BCF858B981A17F4800F041
:103A20000FFD0D9A91B20C98FEF756FC0CA8FFF70B
:103A30005EF8B2E0804807A908AA0BABCDE90021E7
:103A4000029009AA0AA93846FFF79CFC0546002DFA
:103A50003BD1BDF820000B99CDE90010BDF8243012
:103A600076A16E480A9A00F0EBFC9DF81C00012834
:103A700002D0022827D112E00CA96F480088FFF776
:103A8000F9FA58B97CA1654800F0DAFC0D9A91B2B8
:103A90000C98FEF721FC0CA8FFF729F814E00CA9FC
:103AA00065480088FFF72EFB58B979A15B4800F004
:103AB000C7FC0D9A91B20C98FEF70EFC0CA8FFF70C
:103AC00016F801E066E000BF00BF66E03846FFF789
:103AD00039FD18B974A1514800F0B2FC5DE03846D8
:103AE000FFF74EFDA0B978A14C4800F0A9FC0CA945
:103AF0000A20FFF72BFB58B979A1484800F0A0FC39
:103B00000D9A91B20C98FEF7E7FB0CA8FEF7EFFFB9
:103B100043E0494801883846FFF741FDA0B976A146
:103B20003E4800F08DFC0CA90A20FFF7C7FA58B9EF
:103B300077A13A4800F084FC0D9A91B20C98FEF7F8
:103B4000CBFB0CA8FEF7D3FF27E03846FFF709FDB3
:103B500018B976A1314800F073FC1EE03846FFF733
:103B60006BFD20B977A12D4800F06AFC03E07CA131
:103B70002A4800F065FC10E03846FFF777FD20B9D1
:103B80007EA1264800F05CFC03E083A1234800F0FE
:103B900057FC02E04FF0FF3500BF00BFFEF724FAEC
:103BA000681C10B910B0BDE8F0817D210B98FCF7BE
:103BB000E6FD0446A4B1681C90B1641C06E014F84C
:103BC000012B404608F1010804A90A542078302846
:103BD00002DB20783928F2DD04A8FCF7C3FD80461B
:103BE0000F2E01D0032E05D10A98FCF799FB0B98F4
:103BF000FCF796FB00BFD5E7636D6469643A202546
:103C0000732C207265713A2025732C207265715FC8
:103C10006C656E3A2025640D0A00000000380140F2
:103C2000546970733A0953656E6420436D6452653C
:103C300073700D0A0000000098000020746F706916
:103C4000633A2025732C20746F7069635F6C656E16
:103C50003A2025642C207061796C6F61643A2025CC
:103C6000732C207061796C6F61645F6C656E3A20B3
:103C700025640D0A00000000546970733A09536509
:103C80006E64205075626C69736841636B0D0A0045
:103C9000546970733A0953656E64205075626C699B
:103CA00073685265630D0A00546970733A094D5187
:103CB0005454205075626C6973682053656E64209B
:103CC0004F4B0D0A00000000546970733A095265A9
:103CD00076205075626C6973685265630D0A000046
:103CE000546970733A0953656E64205075626C694B
:103CF000736852656C0D0A00546970733A09526515
:103D000076205075626C69736852656C0D0A00000C
:103D1000546970733A0953656E64205075626C691A
:103D20007368436F6D700D0A000000005469707372
:103D30003A09526576205075626C697368436F6DFD
:103D4000700D0A00546970733A094D515454205350
:103D50007562736372696265204F4B0D0A00000043
:103D6000546970733A094D5154542053756273630A
:103D700072696265204572720D0A000054697073A1
:103D80003A094D51545420556E53756273637269EC
:103D90006265204F4B0D0A00546970733A094D510A
:103DA000545420556E537562736372696265204581
:103DB00072720D0A0000000070B586B004460D4610
:103DC00000260020029003900490059007E054F82C
:103DD00026200DA1124800F033FB701CC6B2AE4283
:103DE000F5DB02A82B462246022100901420FFF7A3
:103DF000D1F938B9039A91B20298FEF76DFA02A888
:103E0000FEF775FE06B070BD53756273637269622A
:103E10006520546F7069633A2025730D0A00000015
:103E2000003801407047000029B1064AD2690243B8
:103E3000044BDA6104E0034AD2698243014BDA6140
:103E4000704700000010024029B1064A92690243FF
:103E5000044B9A6104E0034A92698243014B9A61E0
:103E6000704700000010024030B5002100220024FD
:103E700000232D4D6D6805F00C0121B1042905D0FA
:103E8000082923D105E0294D056022E0274D056072
:103E90001FE0254D6D6805F47012234D6D6805F423
:103EA0008034022505EB92421CB9214D5543056033
:103EB0000BE01D4D6D6805F400351DB11C4D5543DB
:103EC000056002E0194D5543056002E0174D05609D
:103ED00000BF00BF144D6D6805F0F0010909154DD4
:103EE0006B5C0568DD4045600F4D6D6805F4E06171
:103EF000090A104D6B5C4568DD4085600A4D6D68B0
:103F000005F46051C90A0B4D6B5C4568DD40C56026
:103F1000054D6D6805F44041890B074D6B5CC56824
:103F2000B5FBF3F5056130BD0010024000127A00C8
:103F300000093D008000002090000020704710B56F
:103F400000F002F810BD00000CB5002001900090B8
:103F50003348006840F480303149086000BF304881
:103F6000006800F4003000900198401C0190009817
:103F700018B90198B0F5A06FF1D12948006800F494
:103F8000003010B10120009001E000200090009866
:103F9000012843D12348006840F0100021490860FF
:103FA0000846006820F0030008600846006840F0FA
:103FB000020008601A48406819494860084640688D
:103FC00048600846406840F48060486008464068A1
:103FD00020F47C1048600846406840F4E8104860CF
:103FE0000846006840F08070086000BF0C48006818
:103FF00000F000700028F9D00948406820F0030064
:10400000074948600846406840F00200486000BF29
:104010000348406800F00C000828F9D10CBD0000EE
:104020000010024000200240042808D14FF0E02197
:10403000096941F004014FF0E022116107E04FF0FF
:10404000E021096921F004014FF0E022116170477D
:104050007047000010B51348006840F00100114996
:10406000086008464068104908400E494860084604
:1040700000680E4908400B4908600846006820F4B3
:10408000802008600846406820F4FE0048604FF435
:104090001F008860FFF753FF4FF00060044908607D
:1040A00010BD0000001002400000FFF8FFFFF6FE08
:1040B00008ED00E010B540F22551044800F050F83A
:1040C00018B12021014800F029F810BD0038014046
:1040D00010B540F225510E4800F042F8B0B10D483D
:1040E0000088802802D300200A4908800848001D63
:1040F0000088C1B2074802880088401C054B188020
:10410000054881542021024800F008F810BD000045
:104110000044004094000020AC00002001F4007234
:10412000B2F5007F00D100BFCA430280704721B1C1
:10413000828942F40052828104E082894DF6FF7345
:104140001A408281704702460020B1F5007F00D1FD
:1041500000BF13880B400BB1012000E00020704726
:1041600070B50246002400230025002040F66A16A0
:10417000B14200D100BFC1F3421501F01F03012677
:1041800006FA03F3012D02D19689334006E0022D91
:1041900002D1168A334001E0968A33400C12012680
:1041A00006FA04F41688344013B10CB1012000E083
:1041B000002070BDF0B50346002400260025002035
:1041C00040F66A17B94200D100BF1846C1F3421445
:1041D00001F01F06012707FA06F5012C01D10C306A
:1041E00004E0022C01D1103000E014301AB107684D
:1041F0002F43076002E00768AF430760F0BD00008F
:104200002DE9F04786B005460E460024A24600BFC1
:10421000A1460027B08900B100BF2F462C8A4CF67A
:10422000FF700440F08804432C82AC894EF6F310F2
:104230000440B08831890843718908430443AC8144
:10424000AC8A4FF6FF400440B0890443AC8201A819
:10425000FFF70AFE1F48874202D1DDF810A001E0F7
:10426000DDF80CA0A88900F4004040B10AEBCA00B8
:1042700000EB0A1031684900B0FBF1F807E00AEBE7
:10428000CA0000EB0A1031688900B0FBF1F8642025
:10429000B8FBF0F004012009642101FB1089A88912
:1042A00000F4004040B1322000EBC900B0FBF1F057
:1042B00000F00700044308E0322000EB09106421FD
:1042C000B0FBF1F000F00F0004432C8106B0BDE814
:1042D000F087000000380140C1F308028280704777
:1042E00000BFFEE710B586B0044601210420FFF7A9
:1042F000ABFD01218803FFF7A7FD18208DF81700FB
:104300004FF40070ADF8140003208DF8160005A9D5
:104310001E48FEF71FF804208DF817000002ADF8C4
:10432000140003208DF8160005A91848FEF712F8AE
:1043300001940020ADF810000C20ADF80E00002014
:10434000ADF80C00ADF80A00ADF8080001A910485E
:10435000FFF756FF01210E48FFF7E9FE012240F268
:1043600025510B48FFF726FF25208DF8000001207E
:104370008DF8030000208DF8010002208DF8020066
:104380006846FFF77FF906B010BD00000008014045
:104390000038014010B586B0044601210420FFF723
:1043A00053FD01214804FFF73FFD18208DF8170049
:1043B0000420ADF8140003208DF8160005A91E484E
:1043C000FDF7C8FF04208DF817000820ADF8140091
:1043D00003208DF8160005A91748FDF7BBFF0194CF
:1043E0000020ADF810000C20ADF80E000020ADF854
:1043F0000C00ADF80A00ADF8080001A90F48FFF75E
:10440000FFFE01210D48FFF792FE012240F22551E7
:104410000A48FFF7CFFE26208DF8000001208DF816
:10442000030000208DF801008DF802006846FFF7B8
:1044300029F906B010BD000000080140004400400A
:104440000FB430B5CBB0054601AC50A800904FF486
:10445000947101A8009B4F9AFBF7AEFF00200090DB
:104460000BE014F8011B2846FFF736FF00BF402180
:104470002846FFF768FE0028F9D020780028F0D100
:104480004BB030BC5DF814FB2DE9F04107460C46FB
:10449000154600260DE014F8011B3846FFF71CFFF7
:1044A00000BF40213846FFF74EFE0028F9D0701CAF
:1044B00086B2AE42EFDBBDE8F081490050EAC12090
:1044C00018BF04204A0D18BF40F0010040F2FF72EF
:1044D000B2EB515F08BF40F00200012808BF052081
:1044E00070472DE9F0414F1E00EBC7010446D1E9AA
:1044F000000115461E4637F006020DD02A46334607
:1045000003F0C0FA7F1E04EBC703D3E9002303F0D6
:10451000B1F837F00602F1D1022F25D0042F13D0C5
:10452000062F18BFBDE8F0812A46334603F0AAFAE9
:10453000D4E90A2303F09EF82A46334603F0A2FA90
:10454000D4E9082303F096F82A46334603F09AFA92
:10455000D4E9062303F08EF82A46334603F092FA94
:10456000D4E9042303F086F82A46334603F08AFA96
:10457000D4E9022303F07EF82A46334603F082FA98
:10458000D4E90023BDE8F04103F074B8012204F03F
:1045900026B903F06FB8002213461046114603F007
:1045A00019B90000024A0020110704F018B90000F0
:1045B00001FDFFFF30380A2801D20120704700209A
:1045C0007047014600BF7047014600BF70470000BA
:1045D0002DE9FE4F06460F460025684601F0DCF93E
:1045E000002442E056F8240057F82410A0EB010AFA
:1045F000BAF1000F01DB514601E0CAF100010846A3
:1046000003F0E6FE83464FF08F4103F0AFFD804696
:104610005DF82400002103F06BFE16D05DF8241035
:10462000404603F0A3FD82464FF07E5104F02EF881
:10463000814629F0004A0F48416A504603F0F4FFD2
:1046400012D20120A04005430EE00A48C16940464D
:1046500003F0EAFE05D30748016A404603F0E4FF91
:1046600002D20120A0400543641C032CBADB28467B
:10467000BDE8FE8F948800082DE9F04D8D4F21F0A4
:10468000004A86B005460C46BA452ADBAAEB07006D
:1046900028430AD08848824501DC1AD1CDB106B042
:1046A0002846BDE8F04DFFF771BF844A844B284689
:1046B00003F0E8F907460E46824A834B2846214616
:1046C00003F0E0F906B03A463346BDE8F04D02F09B
:1046D000D1BF0120FCF712FA06B0BDE8F04DFFF79C
:1046E0005ABF7A48824542DABAF1795F0BDA284636
:1046F000FFF7E3FE042808BFFFF754FF284606B083
:104700002146BDE8F08D2A460B46104603F0BAF963
:10471000834602466E480E460B4606217844FFF754
:10472000E0FE5A46334603F0ADF9804669488A46B2
:104730005A46334604217844FFF7D3FE5A4633469F
:1047400003F0A0F900223B4602F094FF02460B461C
:104750004046514603F03EF82A46234603F092F9BC
:1047600006B02A462346BDE8F04D02F083BF284636
:1047700024F0004100223D463B4603F081FA4FF011
:10478000FF3204F02CF80646024653480F460B460B
:1047900006217844FFF7A5FE32463B4603F072F946
:1047A000CDE900014D4832463B4604217844FFF7ED
:1047B00098FE32463B4603F065F900222B4602F094
:1047C00059FF834602913046394602F0CFFE8046BB
:1047D00043480D46504517DCDDE900015A46029B6F
:1047E00002F0F8FF42462B4603F04CF942462B46B6
:1047F00002F040FF012203F0F2FF304A304B03F099
:1048000031FB304A304B4CE04FF0000A52460B4629
:10481000404602F02FFFCDE9031052462B461046CA
:10482000194603F02FF932463B4603F029FADDE939
:10483000033202F0CFFF06460F46DDE900015A467B
:10484000029B02F0C7FF83460091012230463946A1
:1048500003F0C5FF194A1A4B03F012FA06460F4639
:1048600001224046294603F0BAFF5A46009B03F056
:1048700009F932463B4603F0F5FA06460F46012297
:104880005046294603F0ABFF0E4DDFF858802A460C
:10489000434603F0F5F932463B4603F0F1F92A4668
:1048A000434603F0EDF9002CD8BF81F0004106B07B
:1048B000BDE8F08D0000F03F0000F07F075C14338E
:1048C00026A6913C182D4454FB21F93F0000E03FFF
:1048D000D04D0000E64D00005A4D0000704D000024
:1048E0003333EF3FFB21E93F2DE9F84F04460D46F6
:1048F00021F0004000917349814211DC72498842E5
:1049000001DC06D12CB120462946BDE8F84FFFF75F
:104910003DBE6E48002DCCBF6D496E49BDE8F88F95
:104920006D49814211DD6D498142D8BF4FF0FF369C
:104930006DDD20462946FFF7C0FD042808BFFFF7BC
:1049400031FE20462946BDE8F88F6549654F25F0C0
:104950000045814233DD6449814219DD002632463B
:104960004FF080432046294602F084FE80468A4666
:1049700001222046294603F032FF00223B4603F085
:1049800071FA4246534602F025FF04460D463EE0CA
:1049900001260022BA463B462046294602F06AFE1E
:1049A00080460F46002253462046294603F05AFA15
:1049B00042463B4602F00EFF04460D4627E04B49B7
:1049C00081421BDDDFF828A1022600225346204643
:1049D000294603F057F800223B4602F04BFE804682
:1049E0000F46002253462046294603F03BFA424632
:1049F0003B4602F0EFFE04460D4608E00326224641
:104A00002B4600203B4902F0E5FE04460D462246B7
:104A10002B461046194603F035F88B46824602466F
:104A20000B4603F02FF807460246334888460B46EC
:104A300006217844FFF755FD52465B4603F022F805
:104A400082462E488B463A46434605217844FFF776
:104A500048FD3A46434603F015F802460B46002E41
:104A6000504659460CDA02F005FE22462B4603F06A
:104A700009F801B022462B46BDE8F04F03F000B91B
:104A800002F0F8FD22462B4602F0FCFF1C4A7A4455
:104A900002EBC603D3E9002303F0E4F922462B46D8
:104AA00003F0E0F9174A7A4402EBC603D3E9002386
:104AB00003F0E6F8009A002AB8BF81F00041BDE893
:104AC000F88F0000000010440000F07F182D4454BF
:104AD000FB21F93FFB21F9BF0000DC3F0000203E35
:104AE0000000F33F0000F03F0000E63F008003407D
:104AF0000000F83F0000F0BF7A4B0000384B000088
:104B0000D64A00009E4A00002DE9F04D9446CCF1B3
:104B1000000423F000464CEA0404524F46EAD474E1
:104B20009A46884621F00042BC4206D8454240EAF7
:104B3000050442EAD474BC4204D9BDE8F04D624693
:104B4000FFF727BDAAF14055A5F17F6555EA0C0492
:104B50000BD0022404EAAA74434DDFF810E144EAC2
:104B6000D87452EA000B04D00CE0BDE8F04DFFF71A
:104B7000BBBE002C14BF012CBDE8F08D022C30D040
:104B8000032C32D056EA0C0B0AD0BE4220D1BA42D6
:104B900009D126F0804622F080423346114617E0C4
:104BA00000291ADB25E0DFF8C8B0FB44002C04BF65
:104BB000DBE90001BDE8F08D012C02BFDBE900015B
:104BC00081F00041BDE8F08D022C0AD0032C0CD0FE
:104BD000BA4212D1B8F1000F0BDA23482549BDE8DB
:104BE000F08D28462449BDE8F08D28467146BDE881
:104BF000F08D1D482149BDE8F08D921B12153C2A0D
:104C0000C4BF19481D490EDCBAF1000FBEBF12F136
:104C10003C0F0020014606DB624602F0DBFD21F07E
:104C20000041FFF761FE002C08BFBDE8F08D012CAC
:104C300004BF81F00041BDE8F08D114A114B022CF8
:104C400007D003F00FF92A46BDE8F04D0A4B03F0F8
:104C500009B903F007F92A46BDE8F04D064B03F009
:104C60000FB800000000F07F182D4454FB2109C04C
:104C7000324A0000FB21F9BFFB210940FB21F93F2B
:104C8000075C143326A6A13C2DE9F0410446E078E8
:104C900000F0C006E07800F03F05607800F0010009
:104CA00098B1EF102846E91705EB5171C910A5EB33
:104CB000C101491C01F0FF080B48006820B10A48F7
:104CC000414602683846904700BF607800F008000F
:104CD00030B10548406818B1B011034A516888479F
:104CE0000020BDE8F08100009C00002010B56FF0AE
:104CF0000400FFF799F90A4800680A49B0FBF1F08F
:104D0000094908700846007800EB4001C1EBC0106B
:104D10004FF6FF7101EAC0000449088010BD000091
:104D20002C00002000127A0076000020780000207D
:104D30000146114A12884A434FF0E0235A6100228B
:104D40009A611A46126942F001021A6100BF4FF0DF
:104D5000E022106900F001021AB100F48032002A4A
:104D6000F5D04FF0E022126922F001024FF0E0236B
:104D70001A6100229A617047780000200146114AAA
:104D800012784A434FF0E0235A6100229A611A4692
:104D9000126942F001021A6100BF4FF0E02210696F
:104DA00000F001021AB100F48032002AF5D04FF071
:104DB000E022126922F001024FF0E0231A61002282
:104DC0009A6170477600002038B5044664B120200F
:104DD0008DF8000028208DF8010030208DF80200A9
:104DE00038208DF8030004E0A32204216846FBF775
:104DF00084FD6A46042140F69E2002F0E5FA01F0A7
:104E0000CFFE38BD3EB5044602208DF80000CA2012
:104E10008DF80100E3208DF8020009208DF80300D1
:104E20006A460421682002F0CFFAA3208DF8000022
:104E300004F0400048B1C0208DF80100C8208DF872
:104E40000200C2208DF8030006E0A3208DF80100C7
:104E50008DF802008DF8030004F4C07048B1C4203E
:104E60008DF80400CC208DF80500C6208DF80600D2
:104E700006E0A3208DF804008DF805008DF80600EB
:104E8000A3208DF807008DF808008DF809006A4608
:104E90000A2140F6A72002F097FA04F0030018B1A7
:104EA00020208DF8000002E0D8208DF800006A462E
:104EB000012140F6B62002F087FA04F0200018B174
:104EC000012000F0ADF802E0002000F0A9F804F4A1
:104ED000C07008B304F4807060B1B2208DF8000097
:104EE0008B208DF80100B6208DF802009B208DF8F4
:104EF00003000BE0B0208DF8000080208DF8010049
:104F0000B4208DF8020090208DF803006A46042139
:104F100040F6A22002F058FA04F0010020B3F82075
:104F20008DF800006A4601214FF40B6002F04CFA44
:104F3000FA21072000F02CFC072000F0F3FB0120F1
:104F400000F013FC642000F0F3FC4FF4FA7000F062
:104F500002FDC821304800F0A3FB282000F0BCFB74
:104F60000A2000F0CCFB08E0D8208DF800006A464B
:104F700001214FF40B6002F027FA04F0020018B18F
:104F8000D9208DF8000002E0D8208DF800006A4694
:104F9000012140F23D7002F017FA04F0040018B14C
:104FA000012000F069F802E0002000F065F804F04C
:104FB000100018B10120FFF707FF02E00020FFF703
:104FC00003FF44F008001549488101F0E9FD002085
:104FD0001249887304F0400018B10846807B801D98
:104FE000887304F4C07020B10C48807B801D0B498D
:104FF000887304F0140020B10848807B1030074902
:10500000887304F0030020B10448807B001D03492D
:10501000887300203EBD000009E3CA029C00002006
:105020003EB504466CB10EA1D1E900208968CDE9F6
:10503000002002916A4609214FF4976002F0C4F9FA
:105040003EBD0AA2D2E900109268CDE901020091AA
:105050006A4609214FF4976002F0B6F9F0E70000C4
:10506000B8AAB38DB4980D355D000000B8AAAAAAFD
:10507000B088C3C5C700000038B5044664B1C0207D
:105080008DF80000C2208DF80100C4208DF80200C8
:10509000C6208DF8030004E08B2204216846FBF74C
:1050A0002CFC6A46042140F6982002F08DF901F0AC
:1050B00077FD38BD10B5C8234FF48062024940F631
:1050C000F63001F001FC10BDBC8800082DE9F04F5E
:1050D0008DB00746884615469946DDE9166B0024D3
:1050E000002030806B49887B5A4605A901F0B8FC46
:1050F00018B1601E0DB0BDE8F08F6648807A00F0F0
:105100001400002867D09DF8140000069DF81510C3
:1051100040EA01409DF8161040EA01209DF8171062
:10512000084328609DF8180000069DF8191040EA11
:1051300001409DF81A1040EA01209DF81B10084319
:1051400068609DF81C0000069DF81D1040EA0140B3
:105150009DF81E1040EA01209DF81F100843A8602A
:105160009DF8200000069DF8211040EA01409DF8BE
:10517000221040EA01209DF823100843E86004F162
:105180001000C4B2286800140190686800140290EE
:10519000A86800140390E868001404900198404344
:1051A000029901FB0100039901FB0100049901FB35
:1051B000010ABAF1706F02DBBAF1885F05DD01F018
:1051C000EFFC00203080401E94E7B6F9000040F468
:1051D0008070308000BF2F48807A00F0400020B3FC
:1051E00005A9601C085C095D40EA012000B2A8F82E
:1051F000000005A9E01C095C05AAA01C105C41EA9E
:10520000002000B2A8F8020005A9601D095C201D5D
:10521000105C41EA002000B2A8F80400A01DC4B24E
:10522000B6F9000040F0080030801A48408900F4C8
:10523000C07008B305A9601C085C095D40EA012044
:1052400000B2388005A9E01C095C05AAA01C105C0E
:1052500041EA002000B2788005A9601D095C201D8C
:10526000105C41EA002000B2B880A01DC4B2B6F9BB
:10527000000040F0700030800648807A00F00300A3
:1052800018B105A90819FFF7FFFC484600F0AEFF6A
:1052900000202FE79C00002070B588B0064601A8CA
:1052A00001F066F9BDF804000021C90341EA504548
:1052B000C4034448007A00F0030056F8200005902B
:1052C0004048007A00F0040010B105984042059073
:1052D0003C48007AC0F3C10056F8200006903948D7
:1052E000007A00F0200010B1069840420690354840
:1052F000007AC0F3811056F82000079031480089E9
:1053000000F4807010B10798404207900598C117CB
:10531000A0FB042301FB043100FB0510810041EADE
:10532000927005900698C117A0FB042301FB04317D
:1053300000FB0510810041EA927006900798C117A2
:10534000A0FB042301FB043100FB0510810041EAAE
:10535000927007900598000E8DF808000598000CD3
:105360008DF809000598000A8DF80A000598C0B26A
:105370008DF80B000698000E8DF80C000698000CB6
:105380008DF80D000698000A8DF80E000698C0B240
:105390008DF80F000798000E8DF810000798000C8C
:1053A0008DF811000798000A8DF812000798C0B216
:1053B0008DF8130002AA0C214FF4257002F004F8B6
:1053C00008B070BD9C00002030B585B0044616A220
:1053D00007CA02AB07C3C82C03DD4FF0FF3005B08E
:1053E00030BDC82090FBF4F0401E85B2280A8DF82D
:1053F0000000E8B28DF801006A46022140F2162052
:1054000001F0E2FF10B14FF0FF30E8E702AA0C21F3
:1054100040F6C12001F0D8FF10B14FF0FF30DEE7B9
:10542000044884810020DAE7FEF2ABC4AAF1DFDF92
:10543000BBAFDFDF9C0000201FB504464848007A60
:1054400000F0030054F8200001904548007A00F075
:10545000040010B10198404201904148007AC0F325
:10546000C10054F8200002903D48007A00F020006E
:1054700010B10298404202903948007AC0F381107E
:1054800054F8200003903648008900F4807010B171
:105490000398404203903349019880FB0101800F3B
:1054A00040EA810001902F49029880FB01108200A0
:1054B00042EA917002902B49039880FB0110820010
:1054C00042EA917003900198000E8DF80000019857
:1054D000000C8DF801000198000A8DF80200019877
:1054E000C0B28DF803006A4604214FF4747001F0D5
:1054F0006BFF18B14FF0FF3004B010BD0298000EE2
:105500008DF800000298000C8DF801000298000A46
:105510008DF802000298C0B28DF803006A4604219B
:105520004FF4757001F050FF10B14FF0FF30E3E71A
:105530000398000E8DF800000398000C8DF8010010
:105540000398000A8DF802000398C0B28DF803009A
:105550006A4604214FF4767001F036FFCCE7000074
:105560009C00002009E3CA0210B586B0044647A09B
:105570000068039046A00068029046A00068019071
:1055800045A00068009004F0030003A9085C8DF8B2
:10559000140003A8C4F3C101405C8DF8150003A8F2
:1055A000C4F38111405C8DF8160004F0030002A9D9
:1055B000085C8DF8100002A8C4F3C101405C8DF8AE
:1055C000110002A8C4F38111405C8DF8120005AAF5
:1055D000032140F2264001F0F7FE18B14FF0FF30F2
:1055E00006B010BD04AA032140F22A4001F0ECFEEF
:1055F00010B14FF0FF30F3E7019805900098049048
:1056000004F0040058B19DF8140040F001008DF83A
:1056100014009DF8100040F001008DF8100004F017
:10562000200058B19DF8150040F001008DF81500DC
:105630009DF8110040F001008DF8110004F4807015
:1056400058B19DF8160040F001008DF816009DF845
:10565000120040F001008DF8120005AA03214FF45A
:10566000886001F0B1FE10B14FF0FF30B8E704AA36
:10567000032140F2314001F0A7FE10B14FF0FF309E
:10568000AEE7064804810020AAE700004CCD6C007C
:105690000CC92C0036567600264666009C00002079
:1056A000F8B505460E464FF47A7095FBF0F000FB16
:1056B00006F4200E8DF80000200C8DF80100200A61
:1056C0008DF80200E0B28DF803006A4604214FF421
:1056D000AE7001F079FEF8BD38B50446052094FBA4
:1056E000F0F084B220128DF80000E0B28DF80100D5
:1056F0006A4602214FF4AD7001F066FE38BD38B540
:105700000446052094FBF0F084B220128DF80000CE
:10571000E0B28DF801006A4602214FF4AC7001F04E
:1057200053FE38BD38B504460020009004F0010057
:1057300020B19DF8000040F03000009004F002001D
:1057400020B19DF8000040F00C00009004F004002F
:1057500020B19DF8000040F0030000906A4601214E
:105760004FF4A47001F030FE38BD38B50446012C6A
:1057700001DA012402E0042C00DD0424601EC0B222
:1057800000906A46012140F24F1001F01DFE38BD25
:105790002DE9FC4706460F4606F0070010B1B7F5A5
:1057A000C86F03DD4FF0FF30BDE8FC87384602F0DC
:1057B00027FE8146594902F0D9FC8046684600F030
:1057C000B1FE9DF80000022806D0042816D0082853
:1057D00026D0102848D135E04FF08D41404602F0E8
:1057E00057FE814602F0D4FD84B24D49404602F096
:1057F0004FFE814602F0CCFD85B238E04FF08C417F
:10580000404602F045FE814602F0C2FD84B24549A1
:10581000404602F03DFE814602F0BAFD85B226E028
:105820004FF08B41404602F033FE814602F0B0FD5E
:1058300084B23D49404602F02BFE814602F0A8FDAD
:1058400085B214E04FF08A41404602F021FE8146C5
:1058500002F09EFD84B23549404602F019FE8146B1
:1058600002F096FD85B202E04FF0FF309CE700BFEA
:1058700020128DF80400E0B28DF8050028128DF892
:105880000600E8B28DF8070006F00100A0B101AAF9
:1058900002214FF4EA7001F097FD10B14FF0FF3094
:1058A00082E70DF1060202214FF4927001F08CFDA7
:1058B00010B14FF0FF3077E706F00200A0B101AA67
:1058C00002214FF4EC7001F07FFD10B14FF0FF307A
:1058D0006AE70DF1060202214FF4947001F074FDA5
:1058E00010B14FF0FF305FE706F00400A0B101AA4D
:1058F00002214FF4EE7001F067FD10B14FF0FF3060
:1059000052E70DF1060202214FF4967001F05CFDA2
:1059100010B14FF0FF3047E7002045E70000484353
:10592000000040460000C045000040450000C04463
:1059300038B50446052094FBF0F085B228128DF8A6
:105940000000E8B28DF801006A4602214FF4EF70C2
:1059500001F03AFD38BD38B50446052094FBF0F05F
:1059600085B228128DF80000E8B28DF801006A4671
:1059700002214FF4ED7001F027FD38BD00BF054A4C
:10598000128802F04002002AF9D0C2B2014B1B1D5E
:105990001A807047003801407CB50546284949689F
:1059A000087801AB04220D21FCF7CBFF08B10720DA
:1059B0007CBD9DF80700C0F301109DF8041001F0B4
:1059C000E00140EAE1008DF800009DF80700C0F317
:1059D00081009DF8051001F0E00140EAE1008DF83A
:1059E00001009DF8070000F003009DF8061001F08B
:1059F000E00140EAE1008DF8020000241CE01DF8FF
:105A0000040018B9002045F8240013E00D4845F8BB
:105A1000240006E055F824000B4902F039FD45F852
:105A200024001DF80400401EC0B20DF80400002838
:105A3000F0D100BF601CC4B2032CE0DB0020B7E74C
:105A4000400000207B14AE3E1D5A843F2DE9F04FEC
:105A500087B005460C46914601208DF810000020C5
:105A60008DF81100FE4A1268917CFD4A5268107848
:105A700004AB0222FDF70BF820B14FF0FF3007B066
:105A8000BDE8F08FC820FFF753F900208DF8100013
:105A9000F34A1268D17BF24A5268107804AB0122B3
:105AA000FCF7F5FF10B14FF0FF30E8E7EC4A126861
:105AB0005179EB4A5268107804AB0122FCF7E7FFFA
:105AC00010B14FF0FF30DAE7E54A1268917CE44A02
:105AD0005268107804AB0122FCF7D9FF10B14FF0E7
